:1000000080315E280A3400347E1480318B1D09282B
:100010000A2812280B1C0D280E2812288C311924AE
:1000200080315C280B1F152816285C282100121F20
:100030001A281B2824282000121F1F2820282428C3
:100040008A31FC2280315C282100921E2828292830
:1000500032282000921E2D282E2832288A31F6229E
:1000600080315C282100931E362837284028200044
:10007000931E3B283C2840288C31632480315C2827
:100080002100931C442845284E282000931C492811
:100090004A284E288B31E92380315C282100111C2D
:1000A000522853285C282000111C572858285C2807
:1000B0008C31902480315C287E10090080316028CA
:1000C0002100803102208031E9008031032080311D
:1000D000EA002000E901EA01EB01A03084000030D1
:1000E000850028308B31142380312030840001308A
:1000F000850010308B31142380317E102000843134
:100100008C2C200038088039BD003D08C2003835ED
:10011000BD003D08C800B71F8E288F2890284814BE
:100120004808031994289528A428480A031D9928EB
:100130009A28A2280030B8000030B7000030B6007E
:100140000030B500B717AC280030B8000030B70059
:100150000030B6000030B5003C088039BD003D08D5
:10016000C2063C35BD003D08C700BB1FB828B928F2
:10017000BA28471447080319BE28BF28CE28470AC3
:10018000031DC328C428CC280030BC000030BB00AD
:100190000030BA000030B900BB17D6280030BC00D0
:1001A0000030BB000030BA000030B9004708031926
:1001B000DA28DB28E0284808031DDF28E028E928A2
:1001C0000030B8000030B7000030B6000030B50095
:1001D000D72A3508BD003D08A3003B088C31FC241C
:1001E000803120002408CE002308CD004D08BD003A
:1001F000BE01BF01C0014008C6003F08C5003E085F
:10020000C4003D08C3004E08BD00BE01BF01C001CF
:100210004008CC003F08CB003E08CA003D08C9009A
:100220003608BD003D08A3003A088C31FC2480311B
:1002300020002408CE002308CD004D08BD00BE01DB
:10024000BF01C0013D08C3073E08C43D3F08C53D8E
:100250004008C63D4E08BD00BE01BF01C0013D08BB
:10026000C9073E08CA3D3F08CB3D4008CC3D370892
:10027000BD003D08A30039088C31FC2480312000EA
:100280002408CE002308CD004D08BD00BE01BF01EB
:10029000C0013D08C3073E08C43D3F08C53D4008B6
:1002A000C63D4E08BD00BE01BF01C0013D08C907E3
:1002B0003E08CA3D3F08CB3D4008CC3D0830C33521
:1002C000C40DC50DC60D890B5F293608BD003D085C
:1002D000A30039088C31FC24803120002408CE0092
:1002E0002308CD004D08C3074E08C43D0030C53D6E
:1002F000C63D3508BD003D08A3003A088C31FC24FA
:10030000803120002408CE002308CD004D08C3070B
:100310004E08C43D0030C53DC63D0830C335C40D50
:10032000C50DC60D890B8E293508BD003D08A300FB
:1003300039088C31FC24803120002408CE002308A9
:10034000CD004D08C3074E08C43D0030C53DC63D35
:100350003608BD003D08A3003B088C31FC248031E9
:1003600020002408CE002308CD004D08C9074E0800
:10037000CA3D0030CB3DCC3D3708BD003D08A30051
:100380003A088C31FC24803120002408CE00230858
:10039000CD004D08C9074E08CA3D0030CB3DCC3DCD
:1003A0003708BD003D08A3003B088C31FC24803198
:1003B00020002408CE002308CD004D08BD004E08C3
:1003C000BE00BF01C0010830BD35BE0DBF0DC00D60
:1003D000890BE4293D08C9073E08CA3D3F08CB3DCB
:1003E0004008CC3D4308BD004408BE004508BF009E
:1003F0004608C0001830C036BF0CBE0CBD0C890BBF
:10040000FB293D08C9073E08CA3D3F08CB3D4008CF
:10041000CC3D0830C335C40DC50DC60D890B0A2A65
:1004200048084707BD00BE01BE0D3D08823ECD0015
:10043000FF303E3DCE00332A0130C935CA0DCB0D09
:10044000CC0D890B1D2AC61F262A272A282A4914C3
:100450000130C335C40DC50DC60D890B292AFF30E7
:10046000CD07FF30CE3DCB1F362A372A1C2AC701C5
:10047000C61F3B2A3C2A582AFF304305BD00FF30E7
:100480004405BE00FF304505BF007F304605C00073
:1004900040083F043E043D0403194F2A502A532AC2
:1004A000C701C70A582A491C562A572A582A502ACF
:1004B000470803195C2A5D2A852A0130C9070030E4
:1004C000CA3D0030CB3D0030CC3D4C1C682A692A27
:1004D000852A4908BD004A08BE004B08BF004C08E9
:1004E000C0000130C100C037BF0CBE0CBD0CC10B39
:1004F000732A4008CC003F08CB003E08CA003D08E4
:10050000C9000130CD070030CE3D4E08803ABD0015
:1005100080303D02031D8E2AFF304D02031C912ABC
:10052000922A9C2A7F302000CC008030CB00003003
:10053000CA000030C900CB2A20004E08803ABD0016
:1005400080303D02031DA62A01304D020318A92A5E
:10055000AA2AB52A00302000CC000030CB000030A1
:10056000CA000030C900C201CB2A20004D08BD00DE
:100570003D08C800FF30C905FF30CA057F30CB05F4
:100580000030CC05481CC52AC62AC72ACB174836D6
:10059000BD003D08CC004208BD003D08CC044C081D
:1005A000B8004B08B7004A08B6004908B500080073
:1005B000200056088039D7005708E0005635D7008C
:1005C0005708E700D51FE52AE62AE72A67146708D7
:1005D0000319EB2AEC2AFC2A670A031DF02AF12AE8
:1005E000F92A0030D6000030D5000030D4000030A9
:1005F000D300D517D601042B0030D6000030D5002B
:100600000030D4000030D30052088039D70057089A
:10061000E0065235D7005708E800D11F102B112BE8
:10062000122B681468080319162B172B272B680A3E
:10063000031D1B2B1C2B242B0030D2000030D100BB
:100640000030D0000030CF00D117D2012F2B003066
:10065000D2000030D1000030D0000030CF0052086E
:10066000510450044F04031D362B372B502B003000
:10067000D6000030D5000030D4000030D3008030E8
:10068000D5047F30D6046008D7005708D604560832
:10069000D2005508D1005408D0005308CF008B2C4D
:1006A0006708031D542B552B5E2B0030D200003001
:1006B000D1000030D0000030CF008B2C6708D7006D
:1006C000D8015808DA0068085702D900031CDA0379
:1006D00059087F3EE10000305A3DE2005608DF0035
:1006E0005508DE005408DD005308DC000030D60059
:1006F0000030D5000030D4000030D3000030E600D8
:100700000030E5000030E4000030E300E801C62BD3
:10071000680803198C2B8D2BA72B0130DC35DD0DE0
:10072000DE0DDF0D890B8E2B0130D335D40DD50DA9
:10073000D60D890B952BE61F9E2B9F2BA02B5314B8
:100740000130E335E40DE50DE60D890BA12B5208D0
:100750005F02031DB52B51085E02031DB52B500827
:100760005D02031DB52B4F085C02031CB82BB92B8F
:10077000C22B66174F08DC025008DD3B5108DE3BF8
:100780005208DF3B0130D7005708E8071A306802EB
:10079000031CCB2BCC2B882B5F085E045D045C0410
:1007A0000319D32BD42BED2B6314ED2B0130D33550
:1007B000D40DD50DD60D890BD72BE61FE02BE12BE1
:1007C000E22B53140130E335E40DE50DE60D890B02
:1007D000E32BFF30E107FF30E23DD51FF02BF12B7B
:1007E000D62BE801E61FF52BF62B122CFF30630504
:1007F000D700FF306405D800FF306505D9007F3091
:100800006605DA005A085904580457040319092CDC
:100810000A2C0D2CE801E80A122C531C102C112C68
:10082000122C0A2C68080319162C172C3F2C0130A7
:10083000D3070030D43D0030D53D0030D63D561CA6
:10084000222C232C3F2C5308D7005408D8005508DD
:10085000D9005608DA000130DB00DA37D90CD80CA1
:10086000D70CDB0B2D2C5A08D6005908D500580898
:10087000D4005708D3000130E1070030E23D6208A0
:10088000803AD70080305702031D482CFF306102A8
:10089000031C4B2C4C2C592CFF302000E100003065
:1008A000E2000030D6000030D5000030D400003027
:1008B000D30020006208803AD70080305702031D21
:1008C000632C013061020318662C672C732C200006
:1008D000E101E2010030D6000030D5000030D40044
:1008E0000030D300E00120006108D7005708E7007E
:1008F000671C7B2C7C2C7E2CD517822C7F30D7005C
:100900005708D5056736D7005708D6006008D700C6
:100910005708D604472B08008D31732584310030E9
:100920008E31782684318F318E2784318B170B17C7
:100930002E302000A3000F30A4008B3179238431A6
:1009400034302000A3000E30A4008B3131238431D9
:10095000BC302000A3000B30A4008B315523843120
:1009600002302000A3000B30A4008B315E238431C1
:1009700002308C31DE248431200023082100E50080
:10098000200024082100E600E701E80168082000B3
:10099000AA00210067082000A900210066082000A5
:1009A000A800210065082000A70000308531B4258B
:1009B000843120002A08D6002908D5002808D40050
:1009C0002708D3004030D200A030D1000030D00042
:1009D0000030CF008231D82284312000520821001B
:1009E000DD00200051082100DC002000500821001B
:1009F000DB0020004F082100DA008631E426843134
:100A000021005B08C7005A08C6003F302000D6000E
:100A10005430D5007A30D400E130D30021003E08B4
:100A20002000A70021003F082000A800A901AA017A
:100A300000308531B425843120002A08BC00290803
:100A4000BB002808BA002708B9003630B8000630C5
:100A5000B7003730B600BD30B50080318120843119
:100A600020003808D2003708D1003608D0003508F9
:100A7000CF008231D8228431200052082100DD00CD
:100A8000200051082100DC00200050082100DB007C
:100A900020004F082100DA008631E426843121004D
:100AA0005B08E6005A08E500E535E60DE535E60D9C
:100AB0006508C4006608C5003F302000B800543007
:100AC000B7007A30B600E130B500210040082000C0
:100AD000A700210041082000A800890D893B890951
:100AE000A900AA0001308531B425843120002A08EC
:100AF000BC002908BB002808BA002708B9008031CB
:100B000081208431200038082100BD0020003708F2
:100B10002100BC00200036082100BB002000350861
:100B20002100BA008E31CF2684318631612684318E
:100B30008A31EB228431003A03199F2DA02DB82C65
:100B40008B31F82384312100E50065082000EB009B
:100B50006B0803392100E500E6016508B40066086A
:100B6000B500B82C80315E282000AF002F08031993
:100B7000BA2DBB2DCF2DAA1FBE2DBF2DCF2D2709DE
:100B8000B1002809B2002909B3002A09B400B10A4A
:100B90000319B20A0319B30A0319B40AD72D2A0894
:100BA000B4002908B3002808B2002708B1002A08B9
:100BB000290428042704031DDE2DDF2DE82D003035
:100BC000AA000030A9000030A8000030A700602E65
:100BD0009630AB002B08B000F82D0130AB002B088D
:100BE000B0070130B436B30CB20CB10C890BF22D46
:100BF000FE303405031DFD2DFE2DED2D122E01308E
:100C0000AB002B08B0070130B1070030B23D003017
:100C1000B33D0030B43D0130B436B30CB20CB10C6E
:100C2000890B0C2EFF303405031D172E182EFF2DB7
:100C3000222E0130B0020130B135B20DB30DB40D2A
:100C4000890B1C2EB31B252E262E2C2E0230300293
:100C500003182B2E2C2E192E30182F2E302E382E16
:100C6000FF30B105FF30B2057F30B305FF30B4056A
:100C70000310B00C3008AB00AC01AD01AE01183070
:100C8000AB35AC0DAD0DAE0D890B402E2B08B1046C
:100C90002C08B2042D08B3042E08B4042F0803193D
:100CA000522E532E582EAA1F562E572E582EB4179A
:100CB0003408AA003308A9003208A8003108A700A8
:100CC000080020006A08803AA90021003508803A0F
:100CD00020002902031D702E210034082000690223
:100CE0000318732E742E972E20008C1B782E792ECD
:100CF0008C2E0030A300A4008C31C2248631023037
:100D00002000AA004530A900A930890B852EA90B27
:100D1000852EAA0B852E003222008C17013021006F
:100D2000C2000030C3008D31A1258631E32E2100A1
:100D30003508803A2000A9006A08803A2902031D7C
:100D4000A42E6908210034020318A72EA82ECB2E4A
:100D500020008C1FAC2EAD2EC02E0030A300A400AE
:100D60008C31C224863102302000AA004530A9000F
:100D7000A930890BB92EA90BB92EAA0BB92E0032B6
:100D800022008C1302302100C2000030C3008D31DC
:100D9000A1258631E32E20006A0821003506031DB7
:100DA000D52E2000690821003406031DD82ED92E27
:100DB000DC2EC201C301E32E00302000A300A400FA
:100DC0008C31C22486310800031021005C0D5D0DBA
:100DD000DE005E08E4006408031DEF2EF02EF92EFD
:100DE0000030DD000030DC000030DB000030DA00D5
:100DF000582F5A08DE005B08DF005C08E0005D0841
:100E0000E1001F30E136E00CDF0CDE0C890B022F15
:100E10005E08E2006208E300DC17FF30DA05FF300D
:100E2000DB05FF30DC050030DD059630E402E41F11
:100E30001A2F1B2F332F6408803A973E0318212F57
:100E4000222F232FF02E0130DD36DC0CDB0CDA0CE8
:100E5000890B242F0130DE005E08E407031D312FCB
:100E6000322F232F482F20306402031C382F392FB4
:100E7000432FF02E0130DA35DB0DDC0DDD0D890B53
:100E80003B2F0130E4026408031D472F482F3A2FFF
:100E9000630803194C2F4D2F582FDA09DB09DC09A1
:100EA000DD09DA0A0319DB0A0319DC0A0319DD0A72
:100EB00008000310720D730DF4007408FA007A082C
:100EC000031D632F642F6D2F0030F3000030F200FC
:100ED0000030F1000030F000CC2F7008F4007108F1
:100EE000F5007208F6007308F7001F30F736F60CAD
:100EF000F50CF40C890B762F7408F8007808F900CB
:100F0000F217FF30F005FF30F105FF30F205003039
:100F1000F3059630FA02FA1F8E2F8F2FA72F7A082B
:100F2000803A973E0318952F962F972F642F013004
:100F3000F336F20CF10CF00C890B982F0130F40011
:100F40007408FA07031DA52FA62F972FBC2F20305A
:100F50007A02031CAC2FAD2FB72F642F0130F03570
:100F6000F10DF20DF30D890BAF2F0130FA027A0863
:100F7000031DBB2FBC2FAE2F79080319C02FC12F23
:100F8000CC2FF009F109F209F309F00A0319F10A6B
:100F90000319F20A0319F30A08002000A70022002F
:100FA0008D10200027088B310E2387312000911DE2
:100FB000DA2FDB2FD62F911124088B310E238731A6
:100FC0002000911DE42FE52FE02F911125088B3192
:100FD0000E2387312000911DEE2FEF2FEA2F911164
:100FE00026088B310E2387312000911DF82FF92F11
:100FF000F42F911122008D14080000344034013484
:021000000034BA
:1015A8000800080008000800080011302200970011
:1015B80008001630210097000800F0007008280085
:1015C80095000800F0007008240091000800200031
:1015D800110E890C0139080002302000E9000030A2
:1015E800EA0008008A31F0228A31200092120800AD
:1015F8008C313C248A3120009212080001302000EE
:10160800E9000030EA000800803022009800063027
:10161800990008002000A300230824009100080076
:10162800640080010131890B152B003460302100E2
:1016380099009801220096010800033021009E00BD
:101648009B019C0101309D000800073020009B0091
:101658009A01911007309C000800200024082100FE
:10166800C900200023082100C80008002000240821
:101678002100D100200023082100D000080020000C
:1016880024082100D500200023082100D4000800E8
:10169800200024082100D300200023082100D200C4
:1016A8000800200024082100D90020002308210078
:1016B800D8000800200024082100D70020002308B3
:1016C8002100D60008000C302600930091019201F9
:1016D800CF3025009E050800200024082100CD00F9
:1016E800200023082100CC00080020002408210045
:1016F800CB00200023082100CA000800F0002000C9
:10170800111E872B882B832B700823009A00080052
:1017180040302400940095010130920021000D1200
:1017280024009512080021009212863022009100B0
:101738009030920020009212210092160800210099
:101748001213863022009300913094002000121367
:101758002100121708002000A3002308230091008D
:101768001513951315140000000023001308080032
:101778002000E901EA012100C001C1010030F000A8
:10178800F1008C3179248B3122008C17080021005C
:10179800580859040319D12BD22BD72B59088A0082
:1017A80058080A008B312700161008002100560837
:1017B80057040319E02BE12BE62B57088A0056083B
:1017C8000A008B3127009611080020009310210091
:1017D8004A084B040319F12BF22BF72B4B088A000C
:1017E8004A080A008B3108002000911EFC2BFD2BB3
:1017F800F82B2100B90123009D1C032C042C062C76
:101808001D121D16190808002000181D0C2C0D2C7F
:10181800142C181071089700700896001814182CCA
:10182800710897007008960008002700161C1D2CE8
:101838001E2C212C8B31CB238C312700961D252C77
:10184800262C292C8B31DA238C3108000430260011
:101858009A0098019901D4302000A3000A30A4000E
:101868008B3131238C31200093122100931608000C
:1018780003302000E9000030EA00D7302100C00022
:101888000030C1000030F000F1008C3179248C3137
:1018980022008C130800C230280096009501200011
:1018A800931021009314D8302000A3000A30A4001C
:1018B8008B3179238C311F302800970008002000D5
:1018C800931226001808F7007708F8001908F7009F
:1018D8007708F9007908F5007808F400210049082C
:1018E8008A0048080A008C3108007108F300700863
:1018F800F200F336F20CF336F20C7208260091006F
:1019080070080339F2000430F235890B882C13086B
:10191800CF397204930008002000111021004F08ED
:10192800F1004E08F0008C3108248C3121004C085D
:101938004D040319A02CA12CA62C4D088A004C0894
:101948000A008C310800200099013C309700B03023
:101958009600111017082100CF002000160821005A
:10196800CE001114D7302000A3000A30A4008B3118
:1019780070238C31013020009800080020002408D2
:10198800A6002308A500A636A50CA636A50C250892
:1019980026009100200023080339A5000430A5354E
:1019A800890BD32C26001308CF39200025042600E4
:1019B800930008002000A6002608A500A50DA50D87
:1019C80021001D08200025068339250621009D00D9
:1019D8001D14003221009D149D18F32CF42CF02CBA
:1019E8001C082000A40021001B082000A3000800F8
:1019F8002000AB00A701A8012308A500A60125081F
:101A0800A9002608AA002B1C0A2D0B2D0F2D29082A
:101A1800A7072A08A83D0130A935AA0D890B102D62
:101A28000310AB0C2B08031D1A2D1B2D072D28089E
:101A3800A4002708A3000800083023009F00903066
:101A48009D0024309E0019309B009C01003020002E
:101A5800A3000030A4008B3143238D3100302000D7
:101A6800A3000030A4008B314C238D3100302000BE
:101A7800A3000030A4008B313A238D312100B90135
:101A88000800F40022008D1074088A31E6228D3196
:101A98002000911D502D512D4C2D911171088A3126
:101AA800E6228D312000911D5A2D5B2D562D911166
:101AB80072088A31E6228D312000911D642D652D32
:101AC800602D911173088A31E6228D312000911D15
:101AD8006E2D6F2D6A2D911122008D1408008B3107
:101AE8008C238D318D31D0258D318B311A238D3159
:101AF8008A31DD228D318B31A3238D318B3108233F
:101B08008D318A31D9228D318C314F248D318B31F1
:101B180029238D318B3197238D318C312A248D31B6
:101B28008B3121238D318B3167238D318C31A72463
:101B38008D318D3120258D310800AA2DFE302000F1
:101B4800A3000130A4008C31C2248D3120006A0822
:101B580021003506031DB42D200069082100340634
:101B6800031DB72DB82DA22D00302000A300A4001E
:101B78008C31C2248D312100C201C30106302000FE
:101B8800A8001330A700AD30890BC82DA70BC82DAE
:101B9800A80BC82D0032080022008C018D01B73037
:101BA80021008C00EF308D00C03023008D000F30F5
:101BB8008C0024008D018C0121009517C83022006B
:101BC8009D0001309E0027001610961115149515DA
:101BD80014109411D5302000A3000A30A4008B31D2
:101BE80055238D31D6302000A3000A30A4008B3154
:101BF8005E238D318B1508000130FA000030FB00A0
:101C0800A830F5007A08F5027508860087010108F2
:101C1800F6007608F1007A08F7007708F200A83095
:101C2800F8007A08F8027808860087010108F900A8
:101C38007908F3007A088D3145258E310130FA078D
:101C48000030FB3D7B08803AF50080307502031DAB
:101C58002F2E08307A02031C322E332E042E080051
:101C68000030F000F1008C3108248E310230210060
:101C780042064304031D412E422E4B2EC11B452E06
:101C8800462E4B2EFF30C007FF30C13D772E420352
:101C98004304031D502E512E642E4108803AF6004D
:101CA80080307602031D5A2ED830400203185D2E6C
:101CB8005E2E642E01302100C0070030C13D772E12
:101CC8002100C001C1010030BD000030BC0000305F
:101CD800BB000030BA00C401C5010030F000F100BB
:101CE8008C3179248E3108002000A6002400951A32
:101CF8007E2E7F2ECE2E20002608A300A401A33519
:101D0800A40DA335A40DFE30230784008730243D9D
:101D1800850000082400940020002608A300A401E0
:101D2800A335A40DA335A40DFD3023078400873007
:101D3800243D85000008240095009601200026080F
:101D4800A300A401A335A40DA335A40DFF302307D8
:101D580084008730243D850000082400920020007C
:101D68002608A300A401A335A40DA335A40D0030B3
:101D7800230784008830243D85000008A500A50EAF
:101D880021000D0820002506EF39250621008D00C9
:101D980024009516080020006A082100B3002000DE
:101DA80069082100B2002000A601A701210032081D
:101DB8002000A4000130A435FF3E031DDF2E24358A
:101DC8002607043E8B31AF238E312000A50026085C
:101DD800A03E86008701250881000130A607003053
:101DE800A73D2708803AA40080302402031DFE2E58
:101DF80004302602031C012F022FDA2E2000A8012E
:101E0800A901210042082000A4000130A435FF3EAA
:101E1800031D0A2F243528071C3E8B31AF238E3132
:101E28002000A5002808A43E860087012508810017
:101E38000130A8070030A93D2908803AA400803065
:101E48002402031D292F04302802031C2C2F2D2FB8
:101E5800052F0800033020006905A0002100420872
:101E68002000A1000330A135FF3E031D372F213587
:101E780020048038BF39A20022082100A8003D08AC
:101E8800F3003C08F2003B08F1003A08F000873103
:101E980059278F3170367F392000A0002008210093
:101EA800A90044082000A0000130A035FF3E031D12
:101EB800592F20357F39A10021082100AA00463575
:101EC8007F392000A00020082100AB00FC01FD01A3
:101ED8007C08A83E8600870101088B3182238F3158
:101EE8000130FC070030FD3D7D08803A2000A0004D
:101EF80080302002031D822F04307C02031C852FB2
:101F0800862F6C2F8E3100268F3100308A31E122E6
:101F18008F3108002000A4010930A8002808A50076
:101F2800A60109308731CD278F312000A40109305F
:101F3800A8002808A500A6010A308731CD278F31CF
:101F48002000A4010C30A8002808A500A6010C3028
:101F58008731CD278F3107302000A8002808A4003A
:101F68000B30A9002908A5000730AA002A08A600F6
:101F78000B308731CD278F312000A401A40A0C3003
:101F8800A8002808A500A601A60A0C308731CD278D
:101F98008F312000A401A40A0F30A8002808A5004A
:101FA800A601A60A0F308731CD278F3103302000D4
:101FB800A9008A30A8005530890BE02FA80BE02F24
:101FC800A90BE02F00322000A4010F30A800280838
:101FD800A500A6010F308731CD278F312000A4013D
:101FE800A40A0C30A8002808A500A601A60A0C30EF
:081FF8008731CD278F3108006D
:020000040001F9
:08000000FF3FFF3FFF3FFF3F00
:04000E00E43FFF3E8E
:10E00000FF0081008100FF00000000000000FF0011
:10E01000C200A10091008E004200890089007600B4
:10E020001F0010001000FF008F00890089007100A0
:10E030007E008900890072000000080008000800C6
:10E04000000030000C00300000000C0030000C001C
:00000001FF
