:10000000803180280A3400347E1480318B1D092809
:100010000A2812280B1C0D280E2812288A31F622D5
:1000200080317E280B1F152816287E282100111EDE
:100030001A281B2827282000111E1F2820282728BF
:1000400021005F088A005E080A0080317E282100B6
:10005000911E2B282C2838282000911E302831286A
:10006000382821005D088A005C080A0080317E285B
:100070002100121F3C283D2846282000121F41283D
:10008000422846288931D42180317E282100921EC1
:100090004A284B2854282000921E4F2850285428C4
:1000A0008931CE2180317E282100931E582859287D
:1000B00062282000931E5D285E2862288B31402331
:1000C00080317E282100931C662867287028200034
:1000D000931C6B286C2870288A31D62280317E28A8
:1000E0002100111C742875287E282000111C7928F5
:1000F0007A287E288B316D2380317E287E1009007E
:10010000803182282100803102208031EC00803152
:1001100003208031ED002000EC01ED01A0308400CF
:100120000030850036308931E6218031203084006E
:100130000130850020308931E62180317E10200099
:100140008431AD2C200037088039BC003C08C10048
:100150003735BC003C08C700B61FAF28B028B1280F
:10016000471447080319B528B628C528470A031DB0
:10017000BA28BB28C3280030B7000030B6000030D2
:10018000B5000030B400B617CD280030B7000030FD
:10019000B6000030B5000030B4003B088039BC0028
:1001A0003C08C1063B35BC003C08C600BA1FD92834
:1001B000DA28DB28461446080319DF28E028EF2850
:1001C000460A031DE428E528ED280030BB00003076
:1001D000BA000030B9000030B800BA17F728003074
:1001E000BB000030BA000030B9000030B80046084B
:1001F0000319FB28FC2801294708031D00290129B0
:100200000A290030B7000030B6000030B5000030D9
:10021000B400F82A3408BC003C08A2003A088C312B
:100220004C24803120002308CD002208CC004C084B
:10023000BC00BD01BE01BF013F08C5003E08C400AF
:100240003D08C3003C08C2004D08BC00BD01BE0112
:10025000BF013F08CB003E08CA003D08C9003C086A
:10026000C8003508BC003C08A20039088C314C2479
:10027000803120002308CD002208CC004C08BC00AF
:10028000BD01BE01BF013C08C2073D08C33D3E0899
:10029000C43D3F08C53D4D08BC00BD01BE01BF01C6
:1002A0003C08C8073D08C93D3E08CA3D3F08CB3D54
:1002B0003608BC003C08A20038088C314C24803140
:1002C00020002308CD002208CC004C08BC00BD0152
:1002D000BE01BF013C08C2073D08C33D3E08C43D06
:1002E0003F08C53D4D08BC00BD01BE01BF013C0833
:1002F000C8073D08C93D3E08CA3D3F08CB3D083010
:10030000C235C30DC40DC50D890B80293508BC004D
:100310003C08A20038088C314C248031200023088E
:10032000CD002208CC004C08C2074D08C33D003068
:10033000C43DC53D3408BC003C08A20039088C31DE
:100340004C24803120002308CD002208CC004C082A
:10035000C2074D08C33D0030C43DC53D0830C2351D
:10036000C30DC40DC50D890BAF293408BC003C0872
:10037000A20038088C314C24803120002308CD00A5
:100380002208CC004C08C2074D08C33D0030C43DD4
:10039000C53D3508BC003C08A2003A088C314C240D
:1003A000803120002308CD002208CC004C08C8076B
:1003B0004D08C93D0030CA3DCB3D3608BC003C0865
:1003C000A20039088C314C24803120002308CD0054
:1003D0002208CC004C08C8074D08C93D0030CA3D72
:1003E000CB3D3608BC003C08A2003A088C314C24B6
:1003F000803120002308CD002208CC004C08BC002E
:100400004D08BD00BE01BF010830BC35BD0DBE0D9D
:10041000BF0D890B052A3C08C8073D08C93D3E08A9
:10042000CA3D3F08CB3D4208BC004308BD0044081C
:10043000BE004508BF001830BF36BE0CBD0CBC0C5A
:10044000890B1C2A3C08C8073D08C93D3E08CA3D27
:100450003F08CB3D0830C235C30DC40DC50D890B17
:100460002B2A47084607BC00BD01BD0D3C08823E53
:10047000CC00FF303D3DCD00542A0130C835C90DB8
:10048000CA0DCB0D890B3E2AC51F472A482A492A87
:1004900048140130C235C30DC40DC50D890B4A2A5D
:1004A000FF30CC07FF30CD3DCA1F572A582A3D2ABE
:1004B000C601C51F5C2A5D2A792AFF304205BC00AF
:1004C000FF304305BD00FF304405BE007F304505C9
:1004D000BF003F083E043D043C040319702A712A02
:1004E000742AC601C60A792A481C772A782A792AEA
:1004F000712A460803197D2A7E2AA62A0130C807D8
:100500000030C93D0030CA3D0030CB3D4B1C892A2C
:100510008A2AA62A4808BC004908BD004A08BE002D
:100520004B08BF000130C000BF37BE0CBD0CBC0C77
:10053000C00B942A3F08CB003E08CA003D08C90002
:100540003C08C8000130CC070030CD3D4D08803A52
:10055000BC0080303C02031DAF2AFF304C02031C5C
:10056000B22AB32ABD2A7F302000CB008030CA00D7
:100570000030C9000030C800EC2A20004D08803A45
:10058000BC0080303C02031DC72A01304C02031816
:10059000CA2ACB2AD62A00302000CB000030CA005D
:1005A0000030C9000030C800C101EC2A20004C080E
:1005B000BC003C08C700FF30C805FF30C9057F30CC
:1005C000CA050030CB05471CE62AE72AE82ACA17E5
:1005D0004736BC003C08CB004108BC003C08CB04BB
:1005E0004B08B7004A08B6004908B5004808B400EF
:1005F0000800200055088039D6005608DF00553520
:10060000D6005608E600D41F062B072B082B6614CD
:10061000660803190C2B0D2B1D2B660A031D112BCD
:10062000122B1A2B0030D5000030D4000030D3003C
:100630000030D200D417D501252B0030D500003072
:10064000D4000030D3000030D20051088039D600E9
:100650005608DF065135D6005608E700D01F312B6B
:10066000322B332B671467080319372B382B482B91
:10067000670A031D3C2B3D2B452B0030D100003079
:10068000D0000030CF000030CE00D017D101502B69
:100690000030D1000030D0000030CF000030CE005C
:1006A000510850044F044E04031D572B582B712B37
:1006B0000030D5000030D4000030D3000030D2002C
:1006C0008030D4047F30D5045F08D6005608D504A6
:1006D0005508D1005408D0005308CF005208CE006E
:1006E000AC2C6608031D752B762B7F2B0030D100B8
:1006F0000030D0000030CF000030CE00AC2C6608B7
:10070000D600D7015708D90067085602D800031C45
:10071000D90358087F3EE0000030593DE1005508FC
:10072000DE005408DD005308DC005208DB00003016
:10073000D5000030D4000030D3000030D2000030AB
:10074000E5000030E4000030E3000030E200E701A3
:10075000E72B67080319AD2BAE2BC82B0130DB3517
:10076000DC0DDD0DDE0D890BAF2B0130D235D30D45
:10077000D40DD50D890BB62BE51FBF2BC02BC12B7C
:1007800052140130E235E30DE40DE50D890BC22B67
:1007900051085E02031DD62B50085D02031DD62BA7
:1007A0004F085C02031DD62B4E085B02031CD92B9D
:1007B000DA2BE32B65174E08DB024F08DC3B5008B1
:1007C000DD3B5108DE3B0130D6005608E7071A3002
:1007D0006702031CEC2BED2BA92B5E085D045C0467
:1007E0005B040319F42BF52B0E2C62140E2C013034
:1007F000D235D30DD40DD50D890BF82BE51F012C67
:10080000022C032C52140130E235E30DE40DE50D0A
:10081000890B042CFF30E007FF30E13DD41F112C81
:10082000122CF72BE701E51F162C172C332CFF3069
:100830006205D600FF306305D700FF306405D8009D
:100840007F306505D9005908580457045604031928
:100850002A2C2B2C2E2CE701E70A332C521C312C8E
:10086000322C332C2B2C67080319372C382C602C96
:100870000130D2070030D33D0030D43D0030D53DAB
:10088000551C432C442C602C5208D6005308D7002A
:100890005408D8005508D9000130DA00D937D80CEF
:1008A000D70CD60CDA0B4E2C5908D5005808D400BA
:1008B0005708D3005608D2000130E0070030E13D70
:1008C0006108803AD60080305602031D692CFF3043
:1008D0006002031C6C2C6D2C7A2CFF302000E00091
:1008E0000030E1000030D5000030D4000030D300EB
:1008F0000030D20020006108803AD60080305602D5
:10090000031D842C013060020318872C882C942C42
:100910002000E001E1010030D5000030D4000030BB
:10092000D3000030D200DF0120006008D600560856
:10093000E600661C9C2C9D2C9F2CD417A32C7F308A
:10094000D6005608D4056636D6005608D5005F088E
:10095000D6005608D504682B08008C31C524843194
:1009600000308E31DB2684318731842784318B1728
:100970000B1785302000A2000E30A3008731F62728
:100980008431FA302000A2000D30A3008A311E22EB
:100990008431A9302000A2000A30A3008A315422F9
:1009A00084310C302000A2000A30A3008A315D227D
:1009B00084318F313227843102308C310D248431DF
:1009C000200022082200C800200023082200C900BD
:1009D000CA01CB014B082000A90022004A082000D0
:1009E000A800220049082000A70022004808200093
:1009F000A60000308531DD25843120002908D5008E
:100A00002808D4002708D3002608D2004030D1009F
:100A1000A030D0000030CF000030CE008231F9226B
:100A2000843120005108EB005008EA004F08E9002B
:100A30004E08E80086318A268431200069082100AA
:100A4000D500200068082100D4003F302000D500E8
:100A50005430D4007A30D300E130D20021004C0869
:100A60002000A60021004D082000A700A801A90130
:100A700000308531DD25843120002908BB0028089D
:100A8000BA002708B9002608B8003630B70006308B
:100A9000B6003730B500BD30B4008031A2208431BB
:100AA00020003708D1003608D0003508CF003408C0
:100AB000CE008231F922843120005108EB00500829
:100AC000EA004F08E9004E08E80086318A268431A2
:100AD000200069082200C900200068082200C80020
:100AE000C835C90DC835C90D48082100D2002200FB
:100AF00049082100D3003F302000B7005430B60031
:100B00007A30B500E130B40021004E082000A60084
:100B100021004F082000A700890D893B8909A80002
:100B2000A90001308531DD25843120002908BB0072
:100B30002808BA002708B9002608B8008031A2208A
:100B40008431200037082100CB0020003608210026
:100B5000CA00200035082100C90020003408210007
:100B6000C8003D083F06031DB72D3C083E0603198B
:100B7000BA2DBB2DBE2D8F31902784318A3115229D
:100B80008431003A0319C52DC62DD92C8C319824F7
:100B900084312200C80048082100C30043080339FB
:100BA0002200C800C90148082100BE0022004908EF
:100BB0002100BF00D92C803180282000AE002E08F3
:100BC0000319E32DE42DF82DA91FE72DE82DF82DAD
:100BD0002609B0002709B1002809B2002909B3008D
:100BE000B00A0319B10A0319B20A0319B30A002E95
:100BF0002908B3002808B2002708B1002608B00071
:100C00002908280427042604031D072E082E112E68
:100C10000030A9000030A8000030A7000030A60076
:100C2000892E9630AA002A08AF00212E0130AA0092
:100C30002A08AF070130B336B20CB10CB00C890BE7
:100C40001B2EFE303305031D262E272E162E3B2E7F
:100C50000130AA002A08AF070130B0070030B13DCB
:100C60000030B23D0030B33D0130B336B20CB10CB0
:100C7000B00C890B352EFF303305031D402E412E5D
:100C8000282E4B2E0130AF020130B035B10DB20D20
:100C9000B30D890B452EB21B4E2E4F2E552E023012
:100CA0002F020318542E552E422E2F18582E592E2F
:100CB000612EFF30B005FF30B1057F30B205FF3047
:100CC000B3050310AF0C2F08AA00AB01AC01AD01B6
:100CD0001830AA35AB0DAC0DAD0D890B692E2A0865
:100CE000B0042B08B1042C08B2042D08B3042E085C
:100CF00003197B2E7C2E812EA91F7F2E802E812E04
:100D0000B3173308A9003208A8003108A70030083B
:100D1000A6000800031020006A0D6B0D2100E500FD
:100D20006508EB006B08031D962E972EA12E003050
:100D30002000EB000030EA000030E9000030E8005D
:100D40000F2F200068082100E5002000690821001D
:100D5000E60020006A082100E70020006B0821005F
:100D6000E8001F30E836E70CE60CE50C890BB22EE4
:100D70006508E9006908EA002000EA17FF30E80585
:100D8000FF30E905FF30EA050030EB059630210021
:100D9000EB02EB1FCC2ECD2EE72E6B08803A973E50
:100DA0000318D32ED42ED52E972E01302000EB36EB
:100DB000EA0CE90CE80C890BD62E01302100E50085
:100DC0006508EB07031DE52EE62ED52EFE2E2030FE
:100DD0006B02031CEC2EED2EF92E972E0130200015
:100DE000E835E90DEA0DEB0D890BEF2E01302100FE
:100DF000EB026B08031DFD2EFE2EEE2E6A08031972
:100E0000022F032F0F2F2000E809E909EA09EB0957
:100E1000E80A0319E90A0319EA0A0319EB0A0800A8
:100E20000310720D730DF4007408FA007A08031DA4
:100E30001A2F1B2F242F0030F3000030F200003057
:100E4000F1000030F000832F7008F4007108F50005
:100E50007208F6007308F7001F30F736F60CF50C31
:100E6000F40C890B2D2F7408F8007808F900F2179C
:100E7000FF30F005FF30F105FF30F2050030F305DB
:100E80009630FA02FA1F452F462F5E2F7A08803AD5
:100E9000973E03184C2F4D2F4E2F1B2F0130F3364A
:100EA000F20CF10CF00C890B4F2F0130F400740898
:100EB000FA07031D5C2F5D2F4E2F732F20307A020F
:100EC000031C632F642F6E2F1B2F0130F035F10DA3
:100ED000F20DF30D890B662F0130FA027A08031D1B
:100EE000722F732F652F79080319772F782F832F8F
:100EF000F009F109F209F309F00A0319F10A0319DB
:100F0000F20A0319F30A08002000A3010930A70020
:100F10002708A400A50109308B31F1238731200077
:100F2000A3010930A7002708A400A5010A308B31CE
:100F3000F12387312000A3010C30A7002708A4006B
:100F4000A5010C308B31F123873107302000A70039
:100F50002708A3000B30A8002808A4000730A90028
:100F60002908A5000B308B31F12387312000A30124
:100F7000A30A0C30A7002708A400A501A50A0C307D
:100F80008B31F12387312000A301A30A0F30A70082
:100F90002708A400A501A50A0F308B31F123873162
:100FA00003302000A8008A30A7005530890BD62FC7
:100FB000A70BD62FA80BD62F00322000A3010F308D
:100FC000A7002708A400A5010F308B31F12387313A
:100FD0002000A301A30A0C30A7002708A400A50144
:100FE000A50A0C308B31F12387310800200023083B
:100FF0002100D700200022082100D60008000A3472
:061000004034043400340A
:101366000800080008000800080008008B31B923AF
:101376008931080023001D121D1608001D302200A9
:10138600970008001630210097000800F00070084A
:101396002400910008008A3103228931200092122C
:1013A60008008B31192389312000921208008830F9
:1013B600220098000830990008002000A2002208A8
:1013C600240091000800640080010131890BE7299F
:1013D600003460302100990098012200960108002F
:1013E600833021009E009B019C0101309D00080076
:1013F600403020009B009A01911004309C000800A8
:1014060002302100BC000030BD008D3123258A3119
:10141600080001302100BC000030BD008D312325BD
:101426008A31080021004508031D1A2A1C2A0130AA
:101436001D2A00300800200023082200C1002000D9
:1014460022082200C0000800200023082200C30052
:10145600200022082200C2000800200023082200E3
:10146600C700200022082200C6000800200023082A
:101476002200C500200022082200C4000800200027
:1014860023082100DD00200022082100DC000800DE
:10149600200023082100DF00200022082100DE00B2
:1014A6000800200023082100E30020002208210074
:1014B600E2000800200023082100E10020002208A5
:1014C6002100E00008000C302600930091019201F3
:1014D600CF3025009E050800200023082100D900F2
:1014E600200022082100D800080021009212863030
:1014F6002200910050309200200092122100921694
:101506000800210012138630220093005130940007
:101516002000121321001217080040302400940006
:101526000A3095000430920021000D122400951215
:1015360008002000A200220823009100151395132D
:101546001514000000002300130808002100BC0148
:10155600BD01CE01CF010030F000F1008B315623E2
:101566008A312100D001D1010800210062086304FC
:101576000319BE2ABF2AC42A63088A0062080A0021
:101586008A3127001610080021006008610403193B
:10159600CD2ACE2AD32A61088A0060080A008A3139
:1015A60027009611080020009310210056085704C2
:1015B6000319DE2ADF2AE42A57088A0056080A0099
:1015C6008A3108002000181DE92AEA2AF12A181093
:1015D60071089700700896001814F52A710897008C
:1015E6007008960008002700161CFA2AFB2AFE2A15
:1015F6008A31B8228A312700961D022B032B062B2F
:101606008A31C7228A310800043026009A009801E0
:101616009901B3302000A2000930A3008A311E22AE
:101626008B3120009312210093160800033021000D
:10163600BC000030BD00D730CE000030CF000030F7
:10164600F000F1008B3156238B312100D001D101FE
:101656000800C23028009600950120009310210052
:101666009314B8302000A2000930A3008731F62772
:101676008B311F30280097000800200093122600A7
:101686001808F7007708F8001908F7007708F90036
:101696007908F5007808F400220041088A0040081D
:1016A6000A008B3108007108F3007008F200F33667
:1016B600F20CF336F20C720826009100700803391A
:1016C600F2000430F235890B652B1308CF3972040A
:1016D600930008002000111021005B08F1005A0851
:1016E600F0008A31E5228B3121005808590403198C
:1016F6007D2B7E2B832B59088A0058080A008B31D4
:101706000800F40022008D1074088931C9218B313C
:101716002000911D8F2B902B8B2B911171088931F5
:10172600C9218B312000911D992B9A2B952B911154
:1017360022008D140800200099013C309700B0303B
:101746009600111017082100DB0020001608210062
:10175600DA001114B7302000A2000930A3008A3144
:101766006F228B31013020009800080023001908F1
:10177600F00020006D08383E8600013087007008B2
:1017860081000130F0007008ED0708306D02031C7F
:10179600CD2BCE2BCF2BED010130F00070082100B0
:1017A600C507080020002308A5002208A400A536C6
:1017B600A40CA536A40C24082600910020002208BB
:1017C6000339A4000430A435890BE62B2600130840
:1017D600CF39200024042600930008002000A6002C
:1017E60022008D10200026088931E0218B3120004F
:1017F600911DFE2BFF2BFA2B911123088931E02135
:101806008B312000911D082C092C042C91112200EB
:101816008D1408002000A5002508A400A40DA40D21
:1018260021001D08200024068339240621009D007E
:101836001D14003221009D149D18222C232C1F2CD0
:101846001C082000A30021001B082000A20008009D
:101856000830210064020318312C322C4A2C460829
:10186600A83E86008701010823009A000130F00097
:1018760070082100C60708304602031C432C442C7E
:10188600452CC6010130F0007008E4074B2C1112FC
:1018960008002000AA00A601A7012208A400A501AD
:1018A6002408A8002508A9002A1C5A2C5B2C5F2CAA
:1018B6002808A6072908A73D0130A835A90D890BD8
:1018C600602C0310AA0C2A08031D6A2C6B2C572CBB
:1018D6002708A3002608A2000800F10021006408DA
:1018E6000319762C772C712C111A7A2C7B2C7F2CD1
:1018F600710823009A00952C11127108F000470810
:10190600A83E86008701700881000130F00070084B
:10191600C70708304702031C912C922C932CC70151
:101926000130E402210011160800210045080319C0
:101936009D2C9E2C982C20006C08A03E86008701CA
:101946000108A20022082100C40020006C08383ECD
:101956008600013087000108A2002208A30001309A
:10196600A2002208EC0708306C02031CBB2CBC2C1E
:10197600BD2CEC01210091120130C5029116200008
:10198600230808008A3190228C318D3155258C31FF
:101996008931EC218C318931C5218C318931C121C4
:1019A6008C318A3184228C318931DA218C318B3128
:1019B6002C238C318931FB218C318A3178228C3170
:1019C6008B3107238C318931F3218C318A316622A0
:1019D6008C318B319E238C318E313E268C31080022
:1019E6000130F8000030F90078082F3E86000130FB
:1019F60087000108F5007508F1007808F6007608FA
:101A0600F2007808303E8600013087000108F700B2
:101A16007708F30078088B3184238C310130F8077E
:101A26000030F93D7908803AF50080307502031DD3
:101A36001E2D08307802031C212D222DF72C0800BC
:101A460021003D083F06031D2A2D3C083E06031DC6
:101A56002D2D2E2D432D0030F000F1008B31562315
:101A66008D312100D001D1010630F5001330F4008C
:101A7600AE30890B3C2DF40B3C2DF50B3C2D542D33
:101A86003D083F06031D492D3C083E0603194C2D13
:101A96004D2D542D9930F0000130F1008B31562335
:101AA6008D310800033022008C0009308D0037305C
:101AB60021008C00ED308D00C03023008D000F30EA
:101AC6008C0024008D018C0121009517C83022005E
:101AD6009D0001309E0027001610961115109511D5
:101AE60014149415B5302000A2000930A3008A31E1
:101AF60054228D31B6302000A2000930A3008A316D
:101B06005D228D318B15080021003D083F06031D1F
:101B16008E2D3C083E06031D912D922DAA2D0030D8
:101B26002000A200A3008B31D5238D312100D001E6
:101B3600D10106302000A7001330A600AD30890B76
:101B4600A22DA60BA22DA70BA22D0032BC2D3D085F
:101B56003F06031DB02D3C083E060319B32DB42DD8
:101B6600BC2D99302000A2000130A3008B31D52373
:101B76008D31080020006D08A03E86008701810196
:101B860023001D1DC72DC82DD42D20006D08A03E95
:101B9600860087018114220047088A0046080A0049
:101BA6008D3123009D1CD82DD92DE52D20006D08E3
:101BB600A03E860087010115220045088A004408D8
:101BC6000A008D3120006D08A03E860087010108BD
:101BD6000319EE2DEF2DF62D220043088A00420848
:101BE6000A008D31F92D8B31B9238D310800003073
:101BF600F000F1008A31E5228D31023021005006D5
:101C06005104031D072E082E112ECF1B0B2E0C2E52
:101C1600112EFF30CE07FF30CF3D3D2E500351042D
:101C2600031D162E172E2A2E4F08803AF6008030F6
:101C36007602031D202ED8304E020318232E242EA2
:101C46002A2E01302100CE070030CF3D3D2E210047
:101C5600CE01CF010030CB000030CA000030C900F1
:101C66000030C800D201D3010030F000F1008B3102
:101C760056238D31080021009112BD302000A200AC
:101C86000D30A3008A3142228E31210011122B30F1
:101C96002000A2000C30A3008A314B228E3108307E
:101CA60023009F0090309D0024309E0019309B0039
:101CB6009C01B4302000A2000930A3008A313022F2
:101CC6008E31BD302000A2000930A3008A313922AE
:101CD6008E31B9302000A2000930A3008A312722B4
:101CE6008E312100C401C701C60108302000A400BE
:101CF60024082100E4002000ED01EC012100C501CB
:101D060091160800033021003C05FB005008FC003A
:101D16000330FC35FF3E031D8C2E7C357B0480385A
:101D2600BF39FD007D08B0004B08F3004A08F200F9
:101D36004908F1004808F000873110278E317036C7
:101D46007F39FB007B082100B1005208FB000130FF
:101D5600FB35FF3E031DAB2E7B357F39FC007C082F
:101D6600B20054357F39FB007B08B3002000A00188
:101D7600A10120002008B03E8600870101088C31B1
:101D860070248E3101302000A0070030A13D2108CB
:101D9600803AFB0080307B02031DD32E04302002E4
:101DA600031CD62ED72EBC2E8C31F3248E31080080
:101DB6002000A5002400951AE12EE22E312F2000E6
:101DC6002508A200A301A235A30DA235A30D00305C
:101DD600220784008830233D8500000824009400F3
:101DE60020002508A200A301A235A30DA235A30D4C
:101DF600FF30220784008730233D85000008240039
:101E06009500960120002508A200A301A235A30D86
:101E1600A235A30D0130220784008830233D8500BA
:101E260000082400920020002508A200A301A23584
:101E3600A30DA235A30D0230220784008830233D6E
:101E460085000008A400A40E21000D082000240629
:101E5600EF39240621008D00240095160800210084
:101E66003D08BB003C08BA002000A501A6012100E0
:101E76003A082000A3000130A335FF3E031D3F2F83
:101E860023352507043E8A319C228F312000A40089
:101E96002508303E86000130870024088100013085
:101EA600A5070030A63D2608803AA300803023020D
:101EB600031D5F2F04302502031C622F632F3A2F68
:101EC6002000A701A801210050082000A30001302E
:101ED600A335FF3E031D6B2F233527071C3E8A3192
:101EE6009C228F312000A4002708343E8600013052
:101EF6008700240881000130A7070030A83D280884
:101F0600803AA30080302302031D8B2F0430270262
:101F1600031C8E2F8F2F662F080021003D08803A64
:101F26002000A80021003F08803A20002802031D57
:101F36009F2F21003E083C020318A22FA32FC62F75
:101F460020008C1BA72FA82FBB2F0030A200A300B8
:101F56008B31D5238F3102302000A9004530A800EF
:101F6600A930890BB42FA80BB42FA90BB42F0032BC
:101F760022008C1701302100D0000030D1008D31B5
:101F860087258F31FF2F21003F08803A2000A800C7
:101F960021003D08803A20002802031DD52F21008C
:101FA6003C083E020318D82FD92FFC2F20008C1F87
:101FB600DD2FDE2FF12F0030A200A3008B31D523B9
:101FC6008F3102302000A9004530A800A930890BC6
:101FD600EA2FA80BEA2FA90BEA2F003222008C1356
:101FE60002302100D0000030D1008D3187258F319D
:0A1FF600FF2F2100D001D1010800E7
:020000040001F9
:08000000FF3FFF3FFF3FFF3F00
:04000E00E43FFF3E8E
:10E00000FF0081008100FF00000000000000FF0011
:10E0100043008500890071004200910091006E006C
:10E02000F80010001000FF008F00890089007100C7
:10E030007E008900890072000000080008000800C6
:10E0400000000C0030000C00000030000C0030001C
:00000001FF
