:10000000803180280A3400347E1480318B1D092809
:100010000A2812280B1C0D280E2812288A31632268
:1000200080317E280B1F152816287E282100111EDE
:100030001A281B2827282000111E1F2820282728BF
:1000400021005C088A005B080A0080317E282100BC
:10005000911E2B282C2838282000911E302831286A
:100060003828220049088A0048080A0080317E2882
:100070002100121F3C283D2846282000121F41283D
:100080004228462889314F2180317E282100921E46
:100090004A284B2854282000921E4F2850285428C4
:1000A0008931492180317E282100931E5828592802
:1000B00062282000931E5D285E2862288A31AC22C7
:1000C00080317E282100931C662867287028200034
:1000D000931C6B286C2870288A31342280317E284A
:1000E0002100111C742875287E282000111C7928F5
:1000F0007A287E288A31EF2280317E287E100900FE
:10010000803182282100803102208031ED00803151
:1001100003208031EE002000E901EA01EB01A0306C
:1001200084000030850035308931612180312030F4
:1001300084000130850020308931612180317E10BA
:1001400020008431AE2C200038088039BD003D08E5
:10015000C2003835BD003D08C800B71FB028B1281F
:10016000B228481448080319B628B728C628480AF0
:10017000031DBB28BC28C4280030B8000030B700DD
:100180000030B6000030B500B717CE280030B800F8
:100190000030B7000030B6000030B5003C088039B0
:1001A000BD003D08C2063C35BD003D08C700BB1F71
:1001B000DA28DB28DC28471447080319E028E1285F
:1001C000F028470A031DE528E628EE280030BC0089
:1001D0000030BB000030BA000030B900BB17F8286F
:1001E0000030BC000030BB000030BA000030B90065
:1001F00047080319FC28FD2802294808031D012986
:1002000002290B290030B8000030B7000030B600DA
:100210000030B500F92A3508BD003D08A3003B08B1
:100220008B317C23803120002408CE002308CD00B0
:100230004D08BD00BE01BF01C0014008C6003F0817
:10024000C5003E08C4003D08C3004E08BD00BE0105
:10025000BF01C0014008CC003F08CB003E08CA00E7
:100260003D08C9003608BD003D08A3003A088B319F
:100270007C23803120002408CE002308CD004D08C7
:10028000BD00BE01BF01C0013D08C3073E08C43D1B
:100290003F08C53D4008C63D4E08BD00BE01BF0138
:1002A000C0013D08C9073E08CA3D3F08CB3D400894
:1002B000CC3D3708BD003D08A30039088B317C23B5
:1002C000803120002408CE002308CD004D08BD0059
:1002D000BE01BF01C0013D08C3073E08C43D3F0841
:1002E000C53D4008C63D4E08BD00BE01BF01C0016E
:1002F0003D08C9073E08CA3D3F08CB3D4008CC3DFC
:100300000830C335C40DC50DC60D890B81293608CB
:10031000BD003D08A30039088B317C2380312000CB
:100320002408CE002308CD004D08C3074E08C43D65
:100330000030C53DC63D3508BD003D08A3003A0864
:100340008B317C23803120002408CE002308CD008F
:100350004D08C3074E08C43D0030C53DC63D0830BA
:10036000C335C40DC50DC60D890BB0293508BD00B8
:100370003D08A30039088B317C23803120002408FC
:10038000CE002308CD004D08C3074E08C43D003001
:10039000C53DC63D3608BD003D08A3003B088B3176
:1003A0007C23803120002408CE002308CD004D0896
:1003B000C9074E08CA3D0030CB3DCC3D3708BD00D3
:1003C0003D08A3003A088B317C23803120002408AB
:1003D000CE002308CD004D08C9074E08CA3D0030A5
:1003E000CB3DCC3D3708BD003D08A3003B088B3119
:1003F0007C23803120002408CE002308CD004D0846
:10040000BD004E08BE00BF01C0010830BD35BE0DA5
:10041000BF0DC00D890B062A3D08C9073E08CA3D1D
:100420003F08CB3D4008CC3D4308BD004408BE001A
:100430004508BF004608C0001830C036BF0CBE0CCF
:10044000BD0C890B1D2A3D08C9073E08CA3D3F085F
:10045000CB3D4008CC3D0830C335C40DC50DC60D9D
:10046000890B2C2A48084707BD00BE01BE0D3D0878
:10047000823ECD00FF303E3DCE00552A0130C935C9
:10048000CA0DCB0DCC0D890B3F2AC61F482A492A1D
:100490004A2A49140130C335C40DC50DC60D890B58
:1004A0004B2AFF30CD07FF30CE3DCB1F582A592AAB
:1004B0003E2AC701C61F5D2A5E2A7A2AFF304305FD
:1004C000BD00FF304405BE00FF304505BF007F3052
:1004D0004605C00040083F043E043D040319712A4C
:1004E000722A752AC701C70A7A2A491C782A792AEA
:1004F0007A2A722A470803197E2A7F2AA72A0130FE
:10050000C9070030CA3D0030CB3D0030CC3D4C1C0B
:100510008A2A8B2AA72A4908BD004A08BE004B0830
:10052000BF004C08C0000130C100C037BF0CBE0C7A
:10053000BD0CC10B952A4008CC003F08CB003E08FB
:10054000CA003D08C9000130CD070030CE3D4E083D
:10055000803ABD0080303D02031DB02AFF304D02BD
:10056000031CB32AB42ABE2A7F302000CC0080307E
:10057000CB000030CA000030C900ED2A20004E0830
:10058000803ABD0080303D02031DC82A01304D0273
:100590000318CB2ACC2AD72A00302000CC00003008
:1005A000CB000030CA000030C900C201ED2A200093
:1005B0004D08BD003D08C800FF30C905FF30CA0521
:1005C0007F30CB050030CC05481CE72AE82AE92A11
:1005D000CB174836BD003D08CC004208BD003D08A1
:1005E000CC044C08B8004B08B7004A08B6004908CC
:1005F000B5000800200056088039D7005708E000F1
:100600005635D7005708E700D51F072B082B092BB5
:100610006714670803190D2B0E2B1E2B670A031D89
:10062000122B132B1B2B0030D6000030D5000030CE
:10063000D4000030D300D517D601262B0030D600C9
:100640000030D5000030D4000030D300520880398B
:10065000D7005708E0065235D7005708E800D11FE9
:10066000322B332B342B681468080319382B392BA1
:10067000492B680A031D3D2B3E2B462B0030D20030
:100680000030D1000030D0000030CF00D117D201AF
:10069000512B0030D2000030D1000030D0000030AB
:1006A000CF005208510450044F04031D582B592BFE
:1006B000722B0030D6000030D5000030D40000305E
:1006C000D3008030D5047F30D6046008D7005708A7
:1006D000D6045608D2005508D1005408D00053085B
:1006E000CF00AD2C6708031D762B772B802B0030B5
:1006F000D2000030D1000030D0000030CF00AD2C4F
:100700006708D700D8015808DA0068085702D900EE
:10071000031CDA0359087F3EE10000305A3DE20035
:100720005608DF005508DE005408DD005308DC00E1
:100730000030D6000030D5000030D4000030D300A7
:100740000030E6000030E5000030E4000030E30057
:10075000E801E82B68080319AE2BAF2BC92B013039
:10076000DC35DD0DDE0DDF0D890BB02B0130D3350F
:10077000D40DD50DD60D890BB72BE61FC02BC12B81
:10078000C22B53140130E335E40DE50DE60D890B62
:10079000C32B52085F02031DD72B51085E02031DB5
:1007A000D72B50085D02031DD72B4F085C02031C9A
:1007B000DA2BDB2BE42B66174F08DC025008DD3BFD
:1007C0005108DE3B5208DF3B0130D7005708E807ED
:1007D0001A306802031CED2BEE2BAA2B5F085E0477
:1007E0005D045C040319F52BF62B0F2C63140F2CFE
:1007F0000130D335D40DD50DD60D890BF92BE61F5D
:10080000022C032C042C53140130E335E40DE50DC8
:10081000E60D890B052CFF30E107FF30E23DD51FC7
:10082000122C132CF82BE801E61F172C182C342C53
:10083000FF306305D700FF306405D800FF30650541
:10084000D9007F306605DA005A0859045804570465
:1008500003192B2C2C2C2F2CE801E80A342C531CC8
:10086000322C332C342C2C2C68080319382C392CBE
:10087000612C0130D3070030D43D0030D53D00302D
:10088000D63D561C442C452C612C5308D7005408E7
:10089000D8005508D9005608DA000130DB00DA37F5
:1008A000D90CD80CD70CDB0B4F2C5A08D6005908A2
:1008B000D5005808D4005708D3000130E1070030B4
:1008C000E23D6208803AD70080305702031D6A2C4F
:1008D000FF306102031C6D2C6E2C7B2CFF3020003E
:1008E000E1000030E2000030D6000030D5000030DA
:1008F000D4000030D30020006208803AD700803056
:100900005702031D852C013061020318882C892CA5
:10091000952C2000E101E2010030D6000030D50026
:100920000030D4000030D300E00120006108D7007F
:100930005708E700671C9D2C9E2CA02CD517A42CD3
:100940007F30D7005708D5056736D7005708D6003F
:100950006008D7005708D604692B08008B31F623AE
:10096000843100308D31842584318E31A526843147
:100970008B170B17DB302000A3000D30A40089314A
:10098000EA218431F9302000A3000C30A400893121
:100990009021843143302000A3000A30A400893123
:1009A000B421843174302000A3000A30A4008931BE
:1009B000C621843187302000A3000930A40089318A
:1009C000CF21843102308B313D2384312000230834
:1009D0002200CA00200024082200CB00CC01CD0157
:1009E0004D082000AA0022004C082000A900220087
:1009F0004B082000A80022004A082000A700003071
:100A000086318B26843120002A08D6002908D5009B
:100A10002808D4002708D3004030D200A030D100ED
:100A20000030D0000030CF008231FA228431200023
:100A300052082100E500200051082100E4002000B8
:100A400050082100E30020004F082100E2008F3110
:100A50008B27843121006308D4006208D3003F3023
:100A60002000D6005430D5007A30D400E130D300D5
:100A700021004B082000A70021004C082000A800FE
:100A8000A901AA01003086318B26843120002A0872
:100A9000BC002908BB002808BA002708B900363076
:100AA000B8000630B7003730B600BD30B500803131
:100AB000A320843120003808D2003708D10036083E
:100AC000D0003508CF008231FA228431200052084C
:100AD0002100E500200051082100E400200050081A
:100AE0002100E30020004F082100E2008F318B2716
:100AF0008431210063082200CB002100620822001B
:100B0000CA00CA35CB0DCA35CB0D4A082100D10029
:100B100022004B082100D2003F302000B8005430A2
:100B2000B7007A30B600E130B50021004D08200052
:100B3000A70021004E082000A800890D893B8909E3
:100B4000A900AA00013086318B26843120002A08B2
:100B5000BC002908BB002808BA002708B90080316A
:100B6000A3208431200038082100CA002000370863
:100B70002100C900200036082100C80020003508E7
:100B80002100C70020006A0821003D06031DCC2D6E
:100B90002000690821003C060319CF2DD02DE22C3E
:100BA0008E3137268431E22C8031802820006A087B
:100BB00021003D06031DE02D2000690821003C06B0
:100BC000031DE32DE42DFC2D00302000A300A40024
:100BD0008731E32785312100CF01D0010630200085
:100BE000A8001330A700AD30890BF42DA70BF42D0E
:100BF000A80BF42D00328A2E20008C1B002E022E12
:100C00000130032E0030A7006A08803AA8002100B6
:100C10003D08803A20002802031D122E21003C08C6
:100C200020006902031C152E172E0130182E0030EB
:100C300020002705003803191E2E1F2E272E99305D
:100C4000A3000130A4008731E32785318A2E8C1F51
:100C50002A2E2C2E01302D2E0030A70021003D0819
:100C6000803A2000A8006A08803A2802031D3B2E23
:100C7000690821003C02031C3E2E402E0130412E0B
:100C800000302000270500380319472E482E492E32
:100C90001F2E8C1F4C2E4D2E702E0030A300A40052
:100CA0008731E327853102302000A8004530A700B6
:100CB000A930890B592EA70B592EA80B592E00329B
:100CC00022008C1302302100CF000030D000993078
:100CD0002000A3000130A4008731E32785318A2E4C
:100CE0008C1F732E742E8A2E0030A300A40087312F
:100CF000E327853102302000A8004530A700A93045
:100D0000890B802EA70B802EA80B802E003222008C
:100D10008C17622E08002000AF002F080319912EB7
:100D2000922EA62EAA1F952E962EA62E2709B1002A
:100D30002809B2002909B3002A09B400B10A03192D
:100D4000B20A0319B30A0319B40AAE2E2A08B40072
:100D50002908B3002808B2002708B1002A0829048E
:100D600028042704031DB52EB62EBF2E0030AA007E
:100D70000030A9000030A8000030A700372F9630BF
:100D8000AB002B08B000CF2E0130AB002B08B00712
:100D90000130B436B30CB20CB10C890BC92EFE3045
:100DA0003405031DD42ED52EC42EE92E0130AB0000
:100DB0002B08B0070130B1070030B23D0030B33D21
:100DC0000030B43D0130B436B30CB20CB10C890B19
:100DD000E32EFF303405031DEE2EEF2ED62EF92E16
:100DE0000130B0020130B135B20DB30DB40D890B35
:100DF000F32EB31BFC2EFD2E032F023030020318FE
:100E0000022F032FF02E3018062F072F0F2FFF3041
:100E1000B105FF30B2057F30B305FF30B4050310D4
:100E2000B00C3008AB00AC01AD01AE011830AB35F1
:100E3000AC0DAD0DAE0D890B172F2B08B1042C088E
:100E4000B2042D08B3042E08B4042F080319292F67
:100E50002A2F2F2FAA1F2D2F2E2F2F2FB4173408F4
:100E6000AA003308A9003208A8003108A70008002A
:100E700020006A0821003D06031D422F200069085A
:100E800021003C06031D452F462F5B2F0030F0004C
:100E9000F1008A31D82287312100CF01D0010630FC
:100EA000F5001330F400AE30890B542FF40B542F9F
:100EB000F50B542FE22F20008C1B5F2F612F013088
:100EC000622F0030F4006A08803AF50021003D08E6
:100ED000803A7502031D6F2F3C0820006902031C35
:100EE000722F742F0130752F0030740500380319EC
:100EF0007A2F7B2F832F9930F0000130F1008A3157
:100F0000D8228731E22F20008C1F872F892F0130B4
:100F10008A2F0030F40021003D08803AF5002000BF
:100F20006A08803A7502031D982F690821003C0267
:100F3000031C9B2F9D2F01309E2F0030740500381D
:100F40000319A32FA42FA52F7B2F20008C1FA92FBF
:100F5000AA2FCA2F0030F000F1008A31D822873141
:100F60000230F5004530F400AA30890BB52FF40BA0
:100F7000B52FF50BB52F22008C1302302100CF00C6
:100F80000030D0009930F0000130F1008A31D822D1
:100F90008731E22F8C1FCD2FCE2FE22F0030F000B3
:100FA000F1008A31D82287310230F5004530F40053
:100FB000AA30890BD92FF40BD92FF50BD92F22008A
:100FC0008C17BD2F080020002408A6002308A500C8
:100FD000A636A50CA636A50C2508260091002000F3
:100FE00023080339A5000430A535890BF42F26000A
:100FF0001308CF3920002504260093000800003490
:061000004034013400340D
:10125C000800080008000800080008008B31212352
:10126C008931080023001D121D1608001D302200B4
:10127C00970008001630210097000800F000700855
:10128C0024009100080089317E21893120009212BE
:10129C0008008A31C222893120009212080088305D
:1012AC00220098000830990008002000A3002308B1
:1012BC00240091000800640080010131890B62292F
:1012CC00003460302100990098012200960108003A
:1012DC00833021009E009B019C0101309D00080081
:1012EC00403020009B009A01911004309C000800B3
:1012FC0002302000E9000030EA00873138278931BC
:10130C00080001302000E9000030EA00873138275E
:10131C0089310800200024082200C1002000230885
:10132C002200C0000800200024082200C300200076
:10133C0023082200C2000800200024082200C70055
:10134C00200023082200C6000800200024082200E8
:10135C00C500200023082200C40008002000240837
:10136C002200C900200023082200C8000800200029
:10137C0024082100DC00200023082100DB000800E9
:10138C00200024082100E000200023082100DF00B9
:10139C000800200024082100DE0020002308210082
:1013AC00DD0008000C302600930091019201CF3033
:1013BC0025009E050800200024082100D8002000EC
:1013CC0023082100D7000800200024082100D600A3
:1013DC00200023082100D500080040302400940090
:1013EC0095010130920021000D1224009512080085
:1013FC002100921286302200910050309200200081
:10140C00921221009216080021001213863022003D
:10141C009300513094002000121321001217080081
:10142C0021005F08600403191C2A1D2A222A600867
:10143C008A005F080A008A31270016100800210074
:10144C005D085E0403192B2A2C2A312A5E088A00B7
:10145C005D080A008A3127009611080020009310BD
:10146C0021005508560403193C2A3D2A422A5608E5
:10147C008A0055080A008A31080023001908F00078
:10148C0070082100C10041080339F000F101700817
:10149C00BC007108BD0008002000181D562A572AF0
:1014AC005E2A181071089700700896001814622AAA
:1014BC00710897007008960008002700161C672A10
:1014CC00682A6B2A8A3116228A312700961D6F2AC8
:1014DC00702A732A8A3125228A3108002000E901FA
:1014EC00EA012100CD01CE010030F000F1008A317B
:1014FC00D8228A312100CF01D00122008C1708009C
:10150C00043026009A00980199012E302000A30087
:10151C000930A400893190218A31200093122100D6
:10152C0093160800C23028009600950120009310F5
:10153C002100931433302000A3000930A40089311A
:10154C00EA218A311F3028009700080020009312EE
:10155C0026001808F7007708F8001908F700770834
:10156C00F9007908F5007808F400220041088A0097
:10157C0040080A008A31080003302000E9000030DE
:10158C00EA00D7302100CD000030CE000030F00052
:10159C00F1008A31D8228A312100CF01D0012200FA
:1015AC008C1308007108F3007008F200F336F20C8B
:1015BC00F336F20C72082600910070080339F20021
:1015CC000430F235890BE72A1308CF3972049300E3
:1015DC0008002000111021005A08F1005908F000F1
:1015EC008A3152228A312100570858040319FF2AE4
:1015FC00002B052B58088A0057080A008B3108006D
:10160C00200099013C309700B0309600111017085B
:10161C002100DA00200016082100D9001114323004
:10162C002000A3000930A4008931E1218B31013065
:10163C0020009800080023001908F00020006B0817
:10164C00383E860001308700700881000130F000C0
:10165C007008EB0708306B02031C352B362B372B2D
:10166C00EB010130F00070082100C30708002000D6
:10167C00A6002608A500A50DA50D21001D0820001B
:10168C0025068339250621009D001D1400322100FA
:10169C009D149D18522B532B4F2B1C082000A4007B
:1016AC0021001B082000A300080008302100610263
:1016BC000318612B622B7A2B4508A83E8600870104
:1016CC00010823009A000130F00070082100C507C2
:1016DC0008304502031C732B742B752BC50101308C
:1016EC00F0007008E1077B2B111208002000AB0002
:1016FC00A701A8012308A500A6012508A900260812
:10170C00AA002B1C8A2B8B2B8F2B2908A7072A08A6
:10171C00A83D0130A935AA0D890B902B0310AB0CF9
:10172C002B08031D9A2B9B2B872B2808A40027081A
:10173C00A3000800F100210061080319A62BA72BB8
:10174C00A12B111AAA2BAB2BAF2B710823009A00DB
:10175C00C52B11127108F0004608A83E86008701BF
:10176C00700881000130F0007008C607083046028E
:10177C00031CC12BC22BC32BC6010130E10221007B
:10178C0011160800F40022008D10740889314421D0
:10179C008B312000911DD32BD42BCF2B91117108A1
:1017AC00893144218B312000911DDD2BDE2BD92B6F
:1017BC0091117208893144218B312000911DE72B46
:1017CC00E82BE32B91117308893144218B312000D4
:1017DC00911DF12BF22BED2B911122008D14080091
:1017EC008931F3218B318C3154248B318931672130
:1017FC008B31893140218B318A310A228B318931ED
:10180C003C218B31893155218B318A3198228B3196
:10181C00893176218B318931FE218B3189316E21D1
:10182C008B318A3186228B318931D8218B318B31A6
:10183C0006238B318D313D258B3108002000A7000C
:10184C0022008D102000270889315B218C3120006B
:10185C00911D312C322C2D2C9111240889315B21B6
:10186C008C312000911D3B2C3C2C372C91112508E0
:10187C0089315B218C312000911D452C462C412C4B
:10188C009111260889315B218C312000911D4F2C40
:10189C00502C4B2C911122008D1408000330220087
:1018AC008C0009308D003F3021008C00ED308D0014
:1018BC00C03023008D000F308C0024008D018C0172
:1018CC0021009517C83022009D0001309E00270092
:1018DC001610961115109511141494153030200013
:1018EC00A3000930A4008931C6218C31313020008D
:1018FC00A3000930A4008931CF218C318B1508004D
:10190C000130FA000030FB003830F5007A08F5029F
:10191C0075088600013087000108F6007608F10092
:10192C007A08F7007708F2003830F8007A08F802E5
:10193C0078088600013087000108F9007908F30067
:10194C007A088B31C8238C310130FA070030FB3D0B
:10195C007B08803AF50080307502031DB72C0830E7
:10196C007A02031CBA2CBB2C8A2C080020006B08B2
:10197C00A03E86008701810123001D1DC62CC72CAB
:10198C00D32C20006B08A03E860087018114220016
:10199C0047088A0046080A008C3123009D1CD72C6E
:1019AC00D82CE42C20006B08A03E86008701011582
:1019BC00220045088A0044080A008C3120006B087C
:1019CC00A03E8600870101080319ED2CEE2CF52CA6
:1019DC00220043088A0042080A008C31F82C8B3113
:1019EC0021238C3108000030F000F1008A315222A2
:1019FC008C31023021004F065004031D062D072D9B
:101A0C00102DCE1B0A2D0B2D102DFF30CD07FF30C6
:101A1C00CE3D3C2D4F035004031D152D162D292DA5
:101A2C004E08803AF60080307602031D1F2DD83008
:101A3C004D020318222D232D292D01302100CD0715
:101A4C000030CE3D3C2D2100CD01CE010030CA002E
:101A5C000030C9000030C8000030C700D101D201ED
:101A6C000030F000F1008A31D8228C3108002100BE
:101A7C009112BC302000A3000C30A4008931B42199
:101A8C008D31210011125B302000A3000B30A4001B
:101A9C008931BD218D31083023009F0090309D008D
:101AAC0024309E0019309B009C012F302000A30095
:101ABC000930A4008931A2218D3138302000A300D7
:101ACC000930A4008931AB218D3134302000A300C2
:101ADC000930A400893199218D312100C201C60140
:101AEC00C50108302000A50025082100E1002000D8
:101AFC00EB012100C401C301911608002000A600CF
:101B0C002400951A8A2D8B2DDA2D20002608A3008F
:101B1C00A401A335A40DA335A40D00302307840024
:101B2C008830243D850000082400940020002608FD
:101B3C00A300A401A335A40DA335A40DFF302307E6
:101B4C0084008730243D8500000824009500960110
:101B5C0020002608A300A401A335A40DA335A40DD1
:101B6C000130230784008830243D850000082400C0
:101B7C00920020002608A300A401A335A40DA335D0
:101B8C00A40D0230230784008830243D8500000812
:101B9C00A500A50E21000D0820002506EF3925060D
:101BAC0021008D00240095160800033020006905E3
:101BBC00A00021004F082000A1000330A135FF3EFA
:101BCC00031DE42D213520048038BF39A2002208E2
:101BDC002100B0004A08F3004908F2004808F1005F
:101BEC004708F0008F3117278D3170367F39200070
:101BFC00A00020082100B10051082000A0000130F5
:101C0C00A035FF3E031D062E20357F39A10021088B
:101C1C002100B20053357F392000A000200821009C
:101C2C00B300FC01FD017C08B03E86008701010871
:101C3C008B31A0238D310130FC070030FD3D7D0838
:101C4C00803A2000A00080302002031D2F2E04308B
:101C5C007C02031C322E332E192E8C3186248D31AE
:101C6C00080020006A08803AA90021003D08803A4B
:101C7C0020002902031D462E21003C082000690289
:101C8C000318492E4A2E6D2E20008C1B4E2E4F2EE3
:101C9C00622E0030A300A4008731E3278E3102307E
:101CAC002000AA004530A900A930890B5B2EA90B96
:101CBC005B2EAA0B5B2E003222008C170130210008
:101CCC00CF000030D0008531D6258E31A42E2100D6
:101CDC003D08803A2000A9006A08803A2902031DB9
:101CEC007A2E690821003C0203187D2E7E2EA12E2F
:101CFC0020008C1F822E832E962E0030A300A40071
:101D0C008731E3278E3102302000AA004530A9002C
:101D1C00A930890B8F2EA90B8F2EAA0B8F2E003278
:101D2C0022008C1302302100CF000030D00085310E
:101D3C00D6258E31A42E2100CF01D0010800200021
:101D4C00A4010930A8002808A500A60109308C318F
:101D5C0024248E312000A4010930A8002808A500F5
:101D6C00A6010A308C3124248E312000A4010C30C1
:101D7C00A8002808A500A6010C308C3124248E3133
:101D8C0007302000A8002808A4000B30A90029085F
:101D9C00A5000730AA002A08A6000B308C31242499
:101DAC008E312000A401A40A0C30A8002808A5003C
:101DBC00A601A60A0C308C3124248E312000A401FB
:101DCC00A40A0F30A8002808A500A601A60A0F3007
:101DDC008C3124248E3103302000A9008A30A800D5
:101DEC005530890BF72EA80BF72EA90BF72E0032C6
:101DFC002000A4010F30A8002808A500A6010F3070
:101E0C008C3124248E312000A401A40A0C30A800AB
:101E1C002808A500A601A60A0C308C3124248E318A
:101E2C0008000310720D730DF4007408FA007A08A0
:101E3C00031D212F222F2B2F0030F3000030F20036
:101E4C000030F1000030F0008A2F7008F4007108A7
:101E5C00F5007208F6007308F7001F30F736F60C21
:101E6C00F50CF40C890B342F7408F8007808F90081
:101E7C00F217FF30F005FF30F105FF30F2050030AE
:101E8C00F3059630FA02FA1F4C2F4D2F652F7A0866
:101E9C00803A973E0318532F542F552F222F013081
:101EAC00F336F20CF10CF00C890B562F0130F400C8
:101EBC007408FA07031D632F642F552F7A2F2030D7
:101ECC007A02031C6A2F6B2F752F222F0130F035ED
:101EDC00F10DF20DF30D890B6D2F0130FA027A081A
:101EEC00031D792F7A2F6C2F790803197E2F7F2FE2
:101EFC008A2FF009F109F209F309F00A0319F10A22
:101F0C000319F20A0319F30A080003102100640DE7
:101F1C00650DE6006608EC006C08031D962F972FE4
:101F2C00A02F0030E5000030E4000030E30000306A
:101F3C00E200FF2F6208E6006308E7006408E8008F
:101F4C006508E9001F30E936E80CE70CE60C890B54
:101F5C00A92F6608EA006A08EB00E417FF30E205D7
:101F6C00FF30E305FF30E4050030E5059630EC0268
:101F7C00EC1FC12FC22FDA2F6C08803A973E031842
:101F8C00C82FC92FCA2F972F0130E536E40CE30C6C
:101F9C00E20C890BCB2F0130E6006608EC07031D21
:101FAC00D82FD92FCA2FEF2F20306C02031CDF2F14
:101FBC00E02FEA2F972F0130E235E30DE40DE50D0C
:101FCC00890BE22F0130EC026C08031DEE2FEF2F72
:101FDC00E12F6B080319F32FF42FFF2FE209E3090C
:101FEC00E409E509E20A0319E30A0319E40A0319EF
:041FFC00E50A0800EA
:020000040001F9
:08000000FF3FFF3FFF3FFF3F00
:04000E00E43FFF3E8E
:10E00000FF0081008100FF00000000000000FF0011
:10E01000C200A10091008E004200890089007600B4
:10E020001F0010001000FF008F00890089007100A0
:10E030007E008900890072000000080008000800C6
:10E04000000030000C00300000000C0030000C001C
:00000001FF
